{
  "_format": "hh-sol-artifact-1",
  "contractName": "VotingSystem",
  "sourceName": "contracts/VotingSystem.sol",
  "abi": [
    {
      "anonymous": false,
      "inputs": [
        {
          "indexed": true,
          "internalType": "bytes32",
          "name": "forumId",
          "type": "bytes32"
        },
        {
          "indexed": false,
          "internalType": "string",
          "name": "title",
          "type": "string"
        },
        {
          "indexed": true,
          "internalType": "address",
          "name": "admin",
          "type": "address"
        }
      ],
      "name": "ForumCreated",
      "type": "event"
    },
    {
      "anonymous": false,
      "inputs": [
        {
          "indexed": true,
          "internalType": "bytes32",
          "name": "forumId",
          "type": "bytes32"
        },
        {
          "indexed": true,
          "internalType": "address",
          "name": "voter",
          "type": "address"
        },
        {
          "indexed": false,
          "internalType": "uint256",
          "name": "candidateIndex",
          "type": "uint256"
        }
      ],
      "name": "VoteCasted",
      "type": "event"
    },
    {
      "anonymous": false,
      "inputs": [
        {
          "indexed": true,
          "internalType": "bytes32",
          "name": "forumId",
          "type": "bytes32"
        }
      ],
      "name": "VotingEnded",
      "type": "event"
    },
    {
      "inputs": [
        {
          "internalType": "string",
          "name": "_title",
          "type": "string"
        },
        {
          "internalType": "string[]",
          "name": "_candidateNames",
          "type": "string[]"
        }
      ],
      "name": "createVotingForum",
      "outputs": [
        {
          "internalType": "bytes32",
          "name": "",
          "type": "bytes32"
        }
      ],
      "stateMutability": "nonpayable",
      "type": "function"
    },
    {
      "inputs": [
        {
          "internalType": "bytes32",
          "name": "_forumId",
          "type": "bytes32"
        }
      ],
      "name": "endVoting",
      "outputs": [],
      "stateMutability": "nonpayable",
      "type": "function"
    },
    {
      "inputs": [
        {
          "internalType": "uint256",
          "name": "",
          "type": "uint256"
        }
      ],
      "name": "forumIds",
      "outputs": [
        {
          "internalType": "bytes32",
          "name": "",
          "type": "bytes32"
        }
      ],
      "stateMutability": "view",
      "type": "function"
    },
    {
      "inputs": [
        {
          "internalType": "bytes32",
          "name": "_forumId",
          "type": "bytes32"
        }
      ],
      "name": "getAllVotersWithReasons",
      "outputs": [
        {
          "internalType": "address[]",
          "name": "voterAddresses",
          "type": "address[]"
        },
        {
          "internalType": "uint256[]",
          "name": "choices",
          "type": "uint256[]"
        },
        {
          "internalType": "string[]",
          "name": "reasons",
          "type": "string[]"
        }
      ],
      "stateMutability": "view",
      "type": "function"
    },
    {
      "inputs": [
        {
          "internalType": "bytes32",
          "name": "_forumId",
          "type": "bytes32"
        }
      ],
      "name": "getCandidates",
      "outputs": [
        {
          "internalType": "string[]",
          "name": "names",
          "type": "string[]"
        },
        {
          "internalType": "uint256[]",
          "name": "voteCounts",
          "type": "uint256[]"
        }
      ],
      "stateMutability": "view",
      "type": "function"
    },
    {
      "inputs": [
        {
          "internalType": "bytes32",
          "name": "_forumId",
          "type": "bytes32"
        }
      ],
      "name": "getForumDetails",
      "outputs": [
        {
          "internalType": "string",
          "name": "title",
          "type": "string"
        },
        {
          "internalType": "address",
          "name": "admin",
          "type": "address"
        },
        {
          "internalType": "bool",
          "name": "isActive",
          "type": "bool"
        },
        {
          "internalType": "uint256",
          "name": "totalVoters",
          "type": "uint256"
        },
        {
          "internalType": "uint256",
          "name": "createdAt",
          "type": "uint256"
        }
      ],
      "stateMutability": "view",
      "type": "function"
    },
    {
      "inputs": [
        {
          "internalType": "uint256",
          "name": "_index",
          "type": "uint256"
        }
      ],
      "name": "getForumIdByIndex",
      "outputs": [
        {
          "internalType": "bytes32",
          "name": "",
          "type": "bytes32"
        }
      ],
      "stateMutability": "view",
      "type": "function"
    },
    {
      "inputs": [],
      "name": "getTotalForums",
      "outputs": [
        {
          "internalType": "uint256",
          "name": "",
          "type": "uint256"
        }
      ],
      "stateMutability": "view",
      "type": "function"
    },
    {
      "inputs": [
        {
          "internalType": "bytes32",
          "name": "_forumId",
          "type": "bytes32"
        },
        {
          "internalType": "address",
          "name": "_voter",
          "type": "address"
        }
      ],
      "name": "getVoterChoice",
      "outputs": [
        {
          "internalType": "uint256",
          "name": "candidateIndex",
          "type": "uint256"
        },
        {
          "internalType": "string",
          "name": "reason",
          "type": "string"
        }
      ],
      "stateMutability": "view",
      "type": "function"
    },
    {
      "inputs": [
        {
          "internalType": "bytes32",
          "name": "_forumId",
          "type": "bytes32"
        }
      ],
      "name": "getWinner",
      "outputs": [
        {
          "internalType": "string",
          "name": "winnerName",
          "type": "string"
        },
        {
          "internalType": "uint256",
          "name": "winnerVotes",
          "type": "uint256"
        },
        {
          "internalType": "uint256",
          "name": "winnerIndex",
          "type": "uint256"
        }
      ],
      "stateMutability": "view",
      "type": "function"
    },
    {
      "inputs": [
        {
          "internalType": "bytes32",
          "name": "_forumId",
          "type": "bytes32"
        },
        {
          "internalType": "address",
          "name": "_voter",
          "type": "address"
        }
      ],
      "name": "hasVoted",
      "outputs": [
        {
          "internalType": "bool",
          "name": "",
          "type": "bool"
        }
      ],
      "stateMutability": "view",
      "type": "function"
    },
    {
      "inputs": [
        {
          "internalType": "bytes32",
          "name": "_forumId",
          "type": "bytes32"
        },
        {
          "internalType": "uint256",
          "name": "_newCandidateIndex",
          "type": "uint256"
        },
        {
          "internalType": "string",
          "name": "_newReason",
          "type": "string"
        }
      ],
      "name": "updateVote",
      "outputs": [],
      "stateMutability": "nonpayable",
      "type": "function"
    },
    {
      "inputs": [
        {
          "internalType": "bytes32",
          "name": "_forumId",
          "type": "bytes32"
        },
        {
          "internalType": "uint256",
          "name": "_candidateIndex",
          "type": "uint256"
        },
        {
          "internalType": "string",
          "name": "_reason",
          "type": "string"
        }
      ],
      "name": "vote",
      "outputs": [],
      "stateMutability": "nonpayable",
      "type": "function"
    },
    {
      "inputs": [
        {
          "internalType": "bytes32",
          "name": "",
          "type": "bytes32"
        }
      ],
      "name": "votingForums",
      "outputs": [
        {
          "internalType": "string",
          "name": "title",
          "type": "string"
        },
        {
          "internalType": "address",
          "name": "admin",
          "type": "address"
        },
        {
          "internalType": "bool",
          "name": "isActive",
          "type": "bool"
        },
        {
          "internalType": "uint256",
          "name": "createdAt",
          "type": "uint256"
        }
      ],
      "stateMutability": "view",
      "type": "function"
    }
  ],
  "bytecode": "0x608060405234801561001057600080fd5b50611944806100206000396000f3fe608060405234801561001057600080fd5b50600436106100ea5760003560e01c806385b923ca1161008c578063ae5f543411610066578063ae5f543414610236578063b26348e114610249578063e5e27d851461025c578063fda01b7f1461026f57600080fd5b806385b923ca146101a6578063a8ef98cd146101c7578063aadc3b72146101eb57600080fd5b80631e5f9149116100c85780631e5f91491461013c5780635a6321e71461015e57806368ca4f06146101715780636b6f84e11461019357600080fd5b806314951dd4146100ef5780631af25676146101065780631b72dfc814610127575b600080fd5b6001545b6040519081526020015b60405180910390f35b610119610114366004611260565b610292565b6040516100fd9291906112ec565b61013a6101353660046113c4565b6103d2565b005b61014f61014a366004611414565b61059b565b6040516100fd9392919061142d565b61013a61016c3660046113c4565b6106f1565b61018461017f366004611414565b6108ab565b6040516100fd939291906114df565b6100f36101a1366004611414565b610bb0565b6101b96101b4366004611414565b610bd1565b6040516100fd929190611554565b6101da6101d5366004611414565b610db2565b6040516100fd959493929190611582565b6102266101f9366004611260565b6000828152602081815260408083206001600160a01b038516845260030190915290205460ff1692915050565b60405190151581526020016100fd565b6100f3610244366004611414565b610e95565b61013a610257366004611414565b610f02565b6100f361026a3660046115c2565b610fdb565b61028261027d366004611414565b6111a0565b6040516100fd94939291906116a9565b60008281526020819052604081206001810154606091906001600160a01b031633146103115760405162461bcd60e51b8152602060048201526024808201527f48616e79612061646d696e2079616e672062697361206d656c6968617420616c60448201526330b9b0b760e11b60648201526084015b60405180910390fd5b6001600160a01b03841660009081526004820160209081526040808320546005850190925290912080548190610346906116e1565b80601f0160208091040260200160405190810160405280929190818152602001828054610372906116e1565b80156103bf5780601f10610394576101008083540402835291602001916103bf565b820191906000526020600020905b8154815290600101906020018083116103a257829003601f168201915b5050505050905092509250509250929050565b6000838152602081905260409020600781015460ff166104045760405162461bcd60e51b81526004016103089061171b565b6002810154831061044e5760405162461bcd60e51b815260206004820152601460248201527312d85b991a59185d081d1a59185ac81d985b1a5960621b6044820152606401610308565b33600090815260038201602052604090205460ff166104af5760405162461bcd60e51b815260206004820152601b60248201527f416e64612062656c756d206d656c616b756b616e20766f74696e6700000000006044820152606401610308565b336000908152600482016020526040902054600282018054829081106104d7576104d761174a565b6000918252602082206001600290920201018054916104f583611776565b919050555081600201848154811061050f5761050f61174a565b60009182526020822060016002909202010180549161052d8361178d565b9091555050336000908152600483016020908152604080832087905560058501909152902061055c84826117f5565b50604051848152339086907f0fe2a73af1f58152711883e51e31c3a45f15d28ff5ff48d437d9020461babe8f9060200160405180910390a35050505050565b60008181526020819052604081206060919081908180805b600284015481101561062c57828460020182815481106105d5576105d561174a565b906000526020600020906002020160010154111561061a578360020181815481106106025761060261174a565b90600052602060002090600202016001015492508091505b806106248161178d565b9150506105b3565b508260020181815481106106425761064261174a565b90600052602060002090600202016000018282828054610661906116e1565b80601f016020809104026020016040519081016040528092919081815260200182805461068d906116e1565b80156106da5780601f106106af576101008083540402835291602001916106da565b820191906000526020600020905b8154815290600101906020018083116106bd57829003601f168201915b505050505092509550955095505050509193909250565b6000838152602081905260409020600781015460ff166107235760405162461bcd60e51b81526004016103089061171b565b6002810154831061076d5760405162461bcd60e51b815260206004820152601460248201527312d85b991a59185d081d1a59185ac81d985b1a5960621b6044820152606401610308565b33600090815260038201602052604090205460ff16156107cf5760405162461bcd60e51b815260206004820152601b60248201527f416e6461207375646168206d656c616b756b616e20766f74696e6700000000006044820152606401610308565b3360009081526003820160209081526040808320805460ff1916600117905560048401825280832086905560058401909152902061080d83826117f5565b50600681018054600181018255600091825260209091200180546001600160a01b031916331790556002810180548490811061084b5761084b61174a565b6000918252602082206001600290920201018054916108698361178d565b9091555050604051838152339085907f0fe2a73af1f58152711883e51e31c3a45f15d28ff5ff48d437d9020461babe8f9060200160405180910390a350505050565b6000818152602081905260409020600181015460609182918291906001600160a01b0316331461092c5760405162461bcd60e51b815260206004820152602660248201527f48616e79612061646d696e2079616e672062697361206d656c69686174206461604482015265746120696e6960d01b6064820152608401610308565b60068101548067ffffffffffffffff81111561094a5761094a61130d565b604051908082528060200260200182016040528015610973578160200160208202803683370190505b5094508067ffffffffffffffff81111561098f5761098f61130d565b6040519080825280602002602001820160405280156109b8578160200160208202803683370190505b5093508067ffffffffffffffff8111156109d4576109d461130d565b604051908082528060200260200182016040528015610a0757816020015b60608152602001906001900390816109f25790505b50925060005b81811015610ba6576000836006018281548110610a2c57610a2c61174a565b9060005260206000200160009054906101000a90046001600160a01b0316905080878381518110610a5f57610a5f61174a565b60200260200101906001600160a01b031690816001600160a01b031681525050836004016000826001600160a01b03166001600160a01b0316815260200190815260200160002054868381518110610ab957610ab961174a565b602002602001018181525050836005016000826001600160a01b03166001600160a01b031681526020019081526020016000208054610af7906116e1565b80601f0160208091040260200160405190810160405280929190818152602001828054610b23906116e1565b8015610b705780601f10610b4557610100808354040283529160200191610b70565b820191906000526020600020905b815481529060010190602001808311610b5357829003601f168201915b5050505050858381518110610b8757610b8761174a565b6020026020010181905250508080610b9e9061178d565b915050610a0d565b5050509193909250565b60018181548110610bc057600080fd5b600091825260209091200154905081565b6000818152602081905260409020600281015460609182918067ffffffffffffffff811115610c0257610c0261130d565b604051908082528060200260200182016040528015610c3557816020015b6060815260200190600190039081610c205790505b5093508067ffffffffffffffff811115610c5157610c5161130d565b604051908082528060200260200182016040528015610c7a578160200160208202803683370190505b50925060005b81811015610daa57826002018181548110610c9d57610c9d61174a565b90600052602060002090600202016000018054610cb9906116e1565b80601f0160208091040260200160405190810160405280929190818152602001828054610ce5906116e1565b8015610d325780601f10610d0757610100808354040283529160200191610d32565b820191906000526020600020905b815481529060010190602001808311610d1557829003601f168201915b5050505050858281518110610d4957610d4961174a565b6020026020010181905250826002018181548110610d6957610d6961174a565b906000526020600020906002020160010154848281518110610d8d57610d8d61174a565b602090810291909101015280610da28161178d565b915050610c80565b505050915091565b60008181526020819052604081206001810154600782015460068301546008840154845460609695869586958695929485946001600160a01b039093169360ff909216928590610e01906116e1565b80601f0160208091040260200160405190810160405280929190818152602001828054610e2d906116e1565b8015610e7a5780601f10610e4f57610100808354040283529160200191610e7a565b820191906000526020600020905b815481529060010190602001808311610e5d57829003601f168201915b50505050509450955095509550955095505091939590929450565b6001546000908210610edd5760405162461bcd60e51b8152602060048201526011602482015270125b99195e081d1a59185ac81d985b1a59607a1b6044820152606401610308565b60018281548110610ef057610ef061174a565b90600052602060002001549050919050565b600081815260208190526040902060018101546001600160a01b03163314610f7c5760405162461bcd60e51b815260206004820152602760248201527f48616e79612061646d696e2079616e672062697361206d656e67616b6869726960448201526620766f74696e6760c81b6064820152608401610308565b600781015460ff16610fa05760405162461bcd60e51b81526004016103089061171b565b60078101805460ff1916905560405182907ff1c40f0d04738f24cdc90c227614e183756705e23826f2af0b06051ea0f1f3ca90600090a25050565b600060028251101561102f5760405162461bcd60e51b815260206004820152601d60248201527f4d696e696d616c2032206b616e64696461742064697065726c756b616e0000006044820152606401610308565b6000833342604051602001611046939291906118b5565b60408051601f19818403018152918152815160209283012060008181529283905291209091508061107786826117f5565b50600180820180546001600160a01b0319163317905560078201805460ff1916909117905542600882015560005b8451811015611127578160020160405180604001604052808784815181106110cf576110cf61174a565b6020908102919091018101518252600091810182905283546001810185559382529020815191926002020190819061110790826117f5565b50602082015181600101555050808061111f9061178d565b9150506110a5565b506001805480820182556000919091527fb10e2d527612073b26eecdfd717e6a320cf44b4afac2b0732d9fcbe2b7fa0cf601829055604051339083907fc0bf422dbfbc40512d38de4f2c932b5cf70fa80528022eced1431ff276e1fbca906111909089906118f4565b60405180910390a3509392505050565b6000602081905290815260409020805481906111bb906116e1565b80601f01602080910402602001604051908101604052809291908181526020018280546111e7906116e1565b80156112345780601f1061120957610100808354040283529160200191611234565b820191906000526020600020905b81548152906001019060200180831161121757829003601f168201915b505050506001830154600784015460089094015492936001600160a01b039091169260ff909116915084565b6000806040838503121561127357600080fd5b8235915060208301356001600160a01b038116811461129157600080fd5b809150509250929050565b60005b838110156112b757818101518382015260200161129f565b50506000910152565b600081518084526112d881602086016020860161129c565b601f01601f19169290920160200192915050565b82815260406020820152600061130560408301846112c0565b949350505050565b634e487b7160e01b600052604160045260246000fd5b604051601f8201601f1916810167ffffffffffffffff8111828210171561134c5761134c61130d565b604052919050565b600082601f83011261136557600080fd5b813567ffffffffffffffff81111561137f5761137f61130d565b611392601f8201601f1916602001611323565b8181528460208386010111156113a757600080fd5b816020850160208301376000918101602001919091529392505050565b6000806000606084860312156113d957600080fd5b8335925060208401359150604084013567ffffffffffffffff8111156113fe57600080fd5b61140a86828701611354565b9150509250925092565b60006020828403121561142657600080fd5b5035919050565b60608152600061144060608301866112c0565b60208301949094525060400152919050565b600081518084526020808501945080840160005b8381101561148257815187529582019590820190600101611466565b509495945050505050565b6000815180845260208085019450848260051b860182860160005b858110156114d25783830389526114c08383516112c0565b988501989250908401906001016114a8565b5090979650505050505050565b606080825284519082018190526000906020906080840190828801845b828110156115215781516001600160a01b0316845292840192908401906001016114fc565b505050838103828501526115358187611452565b915050828103604084015261154a818561148d565b9695505050505050565b604081526000611567604083018561148d565b82810360208401526115798185611452565b95945050505050565b60a08152600061159560a08301886112c0565b6001600160a01b039690961660208301525092151560408401526060830191909152608090910152919050565b600080604083850312156115d557600080fd5b823567ffffffffffffffff808211156115ed57600080fd5b6115f986838701611354565b935060209150818501358181111561161057600080fd5b8501601f8101871361162157600080fd5b8035828111156116335761163361130d565b8060051b611642858201611323565b918252828101850191858101908a84111561165c57600080fd5b86850192505b838310156116985782358681111561167a5760008081fd5b6116888c8983890101611354565b8352509186019190860190611662565b809750505050505050509250929050565b6080815260006116bc60808301876112c0565b6001600160a01b03959095166020830152509115156040830152606090910152919050565b600181811c908216806116f557607f821691505b60208210810361171557634e487b7160e01b600052602260045260246000fd5b50919050565b6020808252601590820152742b37ba34b7339039bab230b4103132b930b5b434b960591b604082015260600190565b634e487b7160e01b600052603260045260246000fd5b634e487b7160e01b600052601160045260246000fd5b60008161178557611785611760565b506000190190565b60006001820161179f5761179f611760565b5060010190565b601f8211156117f057600081815260208120601f850160051c810160208610156117cd5750805b601f850160051c820191505b818110156117ec578281556001016117d9565b5050505b505050565b815167ffffffffffffffff81111561180f5761180f61130d565b6118238161181d84546116e1565b846117a6565b602080601f83116001811461185857600084156118405750858301515b600019600386901b1c1916600185901b1785556117ec565b600085815260208120601f198616915b8281101561188757888601518255948401946001909101908401611868565b50858210156118a55787850151600019600388901b60f8161c191681555b5050505050600190811b01905550565b600084516118c781846020890161129c565b60609490941b6bffffffffffffffffffffffff191691909301908152601481019190915260340192915050565b60208152600061190760208301846112c0565b939250505056fea2646970667358221220bfbdb4e4851ccba2502bf5fcd6cc12ebae53b5b052d1edfe8d7fe971b882df6364736f6c63430008140033",
  "linkReferences": {},
  "deployedLinkReferences": {}
}